{
    "contractName": "Accounts",
    "abi": [
        {
            "inputs": [],
            "stateMutability": "nonpayable",
            "type": "constructor"
        },
        {
            "inputs": [
                {
                    "internalType": "address",
                    "name": "_new_address",
                    "type": "address"
                },
                {
                    "internalType": "string",
                    "name": "_login",
                    "type": "string"
                },
                {
                    "internalType": "string",
                    "name": "_name",
                    "type": "string"
                },
                {
                    "internalType": "string",
                    "name": "_password",
                    "type": "string"
                }
            ],
            "name": "add_admin",
            "outputs": [],
            "stateMutability": "nonpayable",
            "type": "function"
        },
        {
            "inputs": [
                {
                    "internalType": "address",
                    "name": "_new_address",
                    "type": "address"
                },
                {
                    "internalType": "string",
                    "name": "_login",
                    "type": "string"
                },
                {
                    "internalType": "string",
                    "name": "_name",
                    "type": "string"
                },
                {
                    "internalType": "string",
                    "name": "_password",
                    "type": "string"
                }
            ],
            "name": "add_customer",
            "outputs": [],
            "stateMutability": "nonpayable",
            "type": "function"
        },
        {
            "inputs": [
                {
                    "internalType": "address",
                    "name": "_address",
                    "type": "address"
                },
                {
                    "internalType": "string",
                    "name": "_name",
                    "type": "string"
                },
                {
                    "internalType": "string",
                    "name": "_city",
                    "type": "string"
                }
            ],
            "name": "add_shop",
            "outputs": [],
            "stateMutability": "nonpayable",
            "type": "function"
        },
        {
            "inputs": [
                {
                    "internalType": "address",
                    "name": "",
                    "type": "address"
                }
            ],
            "name": "admins",
            "outputs": [
                {
                    "internalType": "string",
                    "name": "login",
                    "type": "string"
                },
                {
                    "internalType": "string",
                    "name": "name",
                    "type": "string"
                }
            ],
            "stateMutability": "view",
            "type": "function"
        },
        {
            "inputs": [],
            "name": "ask_for_down",
            "outputs": [],
            "stateMutability": "nonpayable",
            "type": "function"
        },
        {
            "inputs": [
                {
                    "internalType": "address",
                    "name": "_shop_address",
                    "type": "address"
                }
            ],
            "name": "ask_for_up",
            "outputs": [],
            "stateMutability": "nonpayable",
            "type": "function"
        },
        {
            "inputs": [
                {
                    "internalType": "address",
                    "name": "",
                    "type": "address"
                }
            ],
            "name": "asks_for_down",
            "outputs": [
                {
                    "internalType": "string",
                    "name": "",
                    "type": "string"
                }
            ],
            "stateMutability": "view",
            "type": "function"
        },
        {
            "inputs": [
                {
                    "internalType": "address",
                    "name": "",
                    "type": "address"
                }
            ],
            "name": "asks_for_up",
            "outputs": [
                {
                    "internalType": "address",
                    "name": "",
                    "type": "address"
                }
            ],
            "stateMutability": "view",
            "type": "function"
        },
        {
            "inputs": [
                {
                    "internalType": "address",
                    "name": "",
                    "type": "address"
                }
            ],
            "name": "banks",
            "outputs": [
                {
                    "internalType": "string",
                    "name": "name",
                    "type": "string"
                }
            ],
            "stateMutability": "view",
            "type": "function"
        },
        {
            "inputs": [
                {
                    "internalType": "string",
                    "name": "_login",
                    "type": "string"
                },
                {
                    "internalType": "string",
                    "name": "_password",
                    "type": "string"
                }
            ],
            "name": "check_auth_data",
            "outputs": [
                {
                    "internalType": "bool",
                    "name": "",
                    "type": "bool"
                }
            ],
            "stateMutability": "view",
            "type": "function"
        },
        {
            "inputs": [
                {
                    "internalType": "address",
                    "name": "_shop_address",
                    "type": "address"
                },
                {
                    "internalType": "address",
                    "name": "_seller_address",
                    "type": "address"
                }
            ],
            "name": "check_shop_seller",
            "outputs": [
                {
                    "internalType": "bool",
                    "name": "",
                    "type": "bool"
                }
            ],
            "stateMutability": "view",
            "type": "function"
        },
        {
            "inputs": [
                {
                    "internalType": "address",
                    "name": "",
                    "type": "address"
                }
            ],
            "name": "customers",
            "outputs": [
                {
                    "internalType": "string",
                    "name": "login",
                    "type": "string"
                },
                {
                    "internalType": "string",
                    "name": "name",
                    "type": "string"
                }
            ],
            "stateMutability": "view",
            "type": "function"
        },
        {
            "inputs": [
                {
                    "internalType": "address",
                    "name": "_user_address",
                    "type": "address"
                }
            ],
            "name": "down_role",
            "outputs": [],
            "stateMutability": "nonpayable",
            "type": "function"
        },
        {
            "inputs": [
                {
                    "internalType": "address",
                    "name": "_user_address",
                    "type": "address"
                }
            ],
            "name": "get_role",
            "outputs": [
                {
                    "internalType": "string",
                    "name": "",
                    "type": "string"
                }
            ],
            "stateMutability": "view",
            "type": "function"
        },
        {
            "inputs": [
                {
                    "internalType": "address",
                    "name": "_shop_address",
                    "type": "address"
                },
                {
                    "internalType": "address",
                    "name": "_seller_address",
                    "type": "address"
                }
            ],
            "name": "get_shop_seller",
            "outputs": [
                {
                    "internalType": "address",
                    "name": "",
                    "type": "address"
                }
            ],
            "stateMutability": "view",
            "type": "function"
        },
        {
            "inputs": [],
            "name": "get_users_count",
            "outputs": [
                {
                    "internalType": "uint256",
                    "name": "",
                    "type": "uint256"
                }
            ],
            "stateMutability": "view",
            "type": "function"
        },
        {
            "inputs": [
                {
                    "internalType": "string",
                    "name": "",
                    "type": "string"
                }
            ],
            "name": "login_per_address",
            "outputs": [
                {
                    "internalType": "address",
                    "name": "",
                    "type": "address"
                }
            ],
            "stateMutability": "view",
            "type": "function"
        },
        {
            "inputs": [
                {
                    "internalType": "address",
                    "name": "",
                    "type": "address"
                }
            ],
            "name": "providers",
            "outputs": [
                {
                    "internalType": "string",
                    "name": "name",
                    "type": "string"
                }
            ],
            "stateMutability": "view",
            "type": "function"
        },
        {
            "inputs": [
                {
                    "internalType": "address",
                    "name": "_shop_address",
                    "type": "address"
                }
            ],
            "name": "remove_shop",
            "outputs": [],
            "stateMutability": "nonpayable",
            "type": "function"
        },
        {
            "inputs": [
                {
                    "internalType": "address",
                    "name": "",
                    "type": "address"
                }
            ],
            "name": "role_per_address",
            "outputs": [
                {
                    "internalType": "enum Accounts.Role",
                    "name": "",
                    "type": "uint8"
                }
            ],
            "stateMutability": "view",
            "type": "function"
        },
        {
            "inputs": [
                {
                    "internalType": "address",
                    "name": "",
                    "type": "address"
                }
            ],
            "name": "sellers",
            "outputs": [
                {
                    "internalType": "string",
                    "name": "login",
                    "type": "string"
                },
                {
                    "internalType": "string",
                    "name": "name",
                    "type": "string"
                },
                {
                    "internalType": "string",
                    "name": "city",
                    "type": "string"
                },
                {
                    "internalType": "address",
                    "name": "shop_address",
                    "type": "address"
                }
            ],
            "stateMutability": "view",
            "type": "function"
        },
        {
            "inputs": [
                {
                    "internalType": "address",
                    "name": "",
                    "type": "address"
                }
            ],
            "name": "shops",
            "outputs": [
                {
                    "internalType": "string",
                    "name": "name",
                    "type": "string"
                },
                {
                    "internalType": "string",
                    "name": "city",
                    "type": "string"
                },
                {
                    "internalType": "uint16",
                    "name": "rate",
                    "type": "uint16"
                },
                {
                    "internalType": "uint256",
                    "name": "using_reviews",
                    "type": "uint256"
                }
            ],
            "stateMutability": "view",
            "type": "function"
        },
        {
            "inputs": [
                {
                    "internalType": "address",
                    "name": "_user_address",
                    "type": "address"
                }
            ],
            "name": "up_role",
            "outputs": [],
            "stateMutability": "nonpayable",
            "type": "function"
        },
        {
            "inputs": [
                {
                    "internalType": "uint256",
                    "name": "",
                    "type": "uint256"
                }
            ],
            "name": "users",
            "outputs": [
                {
                    "internalType": "address",
                    "name": "",
                    "type": "address"
                }
            ],
            "stateMutability": "view",
            "type": "function"
        }
    ],
    "bytecode": "60806040523480156200001157600080fd5b50604080516080810182526003818301818152620dac2f60eb1b606084018190529083528351808501855291825260208281019190915280830191909152336000908152600b825292909220815180519293919262000074928492019062000212565b5060208281015180516200008f926001850192019062000212565b5050604080516080810182526003818301818152620dac2f60eb1b606084018190529083528351808501855291825260208281019190915280830191909152336000908152600a825292909220815180519294509092620000f69284929091019062000212565b50602082810151805162000111926001850192019062000212565b50506040516200013d91506020016020808252600490820152630c4c8ccd60e21b604082015260600190565b6040516020818303038152906040528051906020012060026040516200016c90620dac2f60eb1b815260030190565b9081526040805191829003602090810183209390935533600081815260019094529220805460ff19166005179055620dac2f60eb1b8152600390810190815260405190819003602001902080546001600160a01b03929092166001600160a01b0319928316179055600080546001810182559080527f290decd9548b62a8d60345a988386fc84ba6bc95484008f6362f93160ef3e56301805490911633179055620002f5565b8280546200022090620002b8565b90600052602060002090601f0160209004810192826200024457600085556200028f565b82601f106200025f57805160ff19168380011785556200028f565b828001600101855582156200028f579182015b828111156200028f57825182559160200191906001019062000272565b506200029d929150620002a1565b5090565b5b808211156200029d5760008155600101620002a2565b600181811c90821680620002cd57607f821691505b60208210811415620002ef57634e487b7160e01b600052602260045260246000fd5b50919050565b61220f80620003056000396000f3fe608060405234801561001057600080fd5b50600436106101585760003560e01c8063429b62e5116100c357806394603f511161007c57806394603f511461033157806396888ea014610344578063e324093b14610357578063e51679f414610380578063f14c316a14610393578063fb7f1cad146103a657600080fd5b8063429b62e51461029d5780635433ee09146102b05780636d47ab72146102c357806378232aac146102e657806380c3b8c2146102ee578063831454db1461030157600080fd5b80632dca1fcc116101155780632dca1fcc146101fd578063336989ae14610220578063365b98b21461024157806339c22db8146102545780633cdce7dd14610267578063423a4e5c1461027a57600080fd5b80630787bc271461015d5780630a322256146101865780631298a4b31461019b578063214f61d3146101c657806322e1b1ef146101d95780632a56b91b146101ea575b600080fd5b61017061016b366004611cb9565b6103da565b60405161017d9190611d30565b60405180910390f35b610199610194366004611de6565b610478565b005b6101ae6101a9366004611e7f565b610593565b6040516001600160a01b03909116815260200161017d565b6101996101d4366004611cb9565b61066c565b60005460405190815260200161017d565b6101996101f8366004611de6565b6106e0565b61021061020b366004611cb9565b610829565b60405161017d9493929190611eb2565b61023361022e366004611cb9565b610966565b60405161017d929190611eef565b6101ae61024f366004611f1d565b610a92565b610170610262366004611cb9565b610abc565b610199610275366004611cb9565b610c78565b61028d610288366004611e7f565b611075565b604051901515815260200161017d565b6102336102ab366004611cb9565b61110f565b6101706102be366004611cb9565b61112a565b6102d66102d1366004611cb9565b6111c4565b60405161017d9493929190611f36565b61019961138d565b6101706102fc366004611cb9565b61140d565b61032461030f366004611cb9565b60016020526000908152604090205460ff1681565b60405161017d9190611f9f565b61019961033f366004611cb9565b611428565b61028d610352366004611fc7565b6115a0565b6101ae610365366004611cb9565b6004602052600090815260409020546001600160a01b031681565b61019961038e36600461202b565b611625565b6101996103a1366004611cb9565b6117a6565b6101ae6103b436600461209f565b80516020818301810180516003825292820191909301209152546001600160a01b031681565b6008602052600090815260409020805481906103f5906120dc565b80601f0160208091040260200160405190810160405280929190818152602001828054610421906120dc565b801561046e5780601f106104435761010080835404028352916020019161046e565b820191906000526020600020905b81548152906001019060200180831161045157829003601f168201915b5050505050905081565b6005803360009081526001602052604090205460ff16600681111561049f5761049f611f89565b146104c55760405162461bcd60e51b81526004016104bc90612111565b60405180910390fd5b60408051808201825285815260208082018690526001600160a01b0388166000908152600b82529290922081518051929391926105059284920190611b54565b50602082810151805161051e9260018501920190611b54565b5050506001600160a01b038516600090815260016020908152604091829020805460ff19166005179055905161055691849101611d30565b6040516020818303038152906040528051906020012060028560405161057c919061213c565b908152604051908190036020019020555050505050565b6000805b6001600160a01b038416600090815260076020526040902060020154811015610664576001600160a01b038481166000908152600760205260409020600201805491851691839081106105ec576105ec612158565b6000918252602090912001546001600160a01b03161415610652576001600160a01b038416600090815260076020526040902060020180548290811061063457610634612158565b6000918252602090912001546001600160a01b031691506106669050565b8061065c81612184565b915050610597565b505b92915050565b6004803360009081526001602052604090205460ff16600681111561069357610693611f89565b146106b05760405162461bcd60e51b81526004016104bc90612111565b5033600090815260046020526040902080546001600160a01b0319166001600160a01b0392909216919091179055565b60408051808201825284815260208082018590526001600160a01b0387166000908152600a82529290922081518051929391926107209284920190611b54565b5060208281015180516107399260018501920190611b54565b5050506001600160a01b038416600090815260016020908152604091829020805460ff19166004179055905161077191839101611d30565b60405160208183030381529060405280519060200120600284604051610797919061213c565b908152602001604051809103902081905550836003846040516107ba919061213c565b90815260405190819003602001902080546001600160a01b039283166001600160a01b031991821617909155600080546001810182559080527f290decd9548b62a8d60345a988386fc84ba6bc95484008f6362f93160ef3e56301805496909216951694909417909355505050565b600760205260009081526040902080548190610844906120dc565b80601f0160208091040260200160405190810160405280929190818152602001828054610870906120dc565b80156108bd5780601f10610892576101008083540402835291602001916108bd565b820191906000526020600020905b8154815290600101906020018083116108a057829003601f168201915b5050505050908060010180546108d2906120dc565b80601f01602080910402602001604051908101604052809291908181526020018280546108fe906120dc565b801561094b5780601f106109205761010080835404028352916020019161094b565b820191906000526020600020905b81548152906001019060200180831161092e57829003601f168201915b505050506003830154600490930154919261ffff1691905084565b600a60205260009081526040902080548190610981906120dc565b80601f01602080910402602001604051908101604052809291908181526020018280546109ad906120dc565b80156109fa5780601f106109cf576101008083540402835291602001916109fa565b820191906000526020600020905b8154815290600101906020018083116109dd57829003601f168201915b505050505090806001018054610a0f906120dc565b80601f0160208091040260200160405190810160405280929190818152602001828054610a3b906120dc565b8015610a885780601f10610a5d57610100808354040283529160200191610a88565b820191906000526020600020905b815481529060010190602001808311610a6b57829003601f168201915b5050505050905082565b60008181548110610aa257600080fd5b6000918252602090912001546001600160a01b0316905081565b6001600160a01b03811660009081526001602052604081205460609160ff90911690816006811115610af057610af0611f89565b1415610b1857505060408051808201909152600481526362616e6b60e01b6020820152919050565b6001816006811115610b2c57610b2c611f89565b1415610b54575050604080518082019091526004815263073686f760e41b6020820152919050565b6002816006811115610b6857610b68611f89565b1415610b94575050604080518082019091526008815267383937bb34b232b960c11b6020820152919050565b6003816006811115610ba857610ba8611f89565b1415610bd257505060408051808201909152600681526539b2b63632b960d11b6020820152919050565b6004816006811115610be657610be6611f89565b1415610c1257505060408051808201909152600881526731bab9ba37b6b2b960c11b6020820152919050565b6005816006811115610c2657610c26611f89565b1415610c4f57505060408051808201909152600581526430b236b4b760d91b6020820152919050565b505060408051808201909152600581526419dd595cdd60da1b6020820152919050565b50919050565b6005803360009081526001602052604090205460ff166006811115610c9f57610c9f611f89565b14610cbc5760405162461bcd60e51b81526004016104bc90612111565b6040805180820182526001600160a01b03841660009081526009602052919091208054829190610ceb906120dc565b80601f0160208091040260200160405190810160405280929190818152602001828054610d17906120dc565b8015610d645780601f10610d3957610100808354040283529160200191610d64565b820191906000526020600020905b815481529060010190602001808311610d4757829003601f168201915b5050505050815260200160096000856001600160a01b03166001600160a01b031681526020019081526020016000206001018054610da1906120dc565b80601f0160208091040260200160405190810160405280929190818152602001828054610dcd906120dc565b8015610e1a5780601f10610def57610100808354040283529160200191610e1a565b820191906000526020600020905b815481529060010190602001808311610dfd57829003601f168201915b5050509190925250506001600160a01b0383166000908152600a60209081526040909120825180519192610e5392849290910190611b54565b506020828101518051610e6c9260018501920190611b54565b5050506001600160a01b03808316600090815260096020908152604080832060030154909316825260079052908120600201905b815462ffffff82161015610fe857836001600160a01b0316828262ffffff1681548110610ecf57610ecf612158565b6000918252602090912001546001600160a01b03161415610fd657818162ffffff1681548110610f0157610f01612158565b600091825260209091200180546001600160a01b031916905581548290610f2a9060019061219f565b81548110610f3a57610f3a612158565b9060005260206000200160009054906101000a90046001600160a01b0316828262ffffff1681548110610f6f57610f6f612158565b600091825260209091200180546001600160a01b0319166001600160a01b039290921691909117905581548290610fa89060019061219f565b81548110610fb857610fb8612158565b600091825260209091200180546001600160a01b0319169055610fe8565b80610fe0816121b6565b915050610ea0565b506001600160a01b0383166000908152600160209081526040808320805460ff1916600417905560099091528120906110218282611bd8565b61102f600183016000611bd8565b61103d600283016000611bd8565b5060030180546001600160a01b03191690556001600160a01b038316600090815260056020526040812061107091611bd8565b505050565b6000805b6001600160a01b038416600090815260076020526040902060020154811015611105576001600160a01b038481166000908152600760205260409020600201805491851691839081106110ce576110ce612158565b6000918252602090912001546001600160a01b031614156110f3576001915050610666565b806110fd81612184565b915050611079565b5060009392505050565b600b60205260009081526040902080548190610981906120dc565b60056020526000908152604090208054611143906120dc565b80601f016020809104026020016040519081016040528092919081815260200182805461116f906120dc565b80156111bc5780601f10611191576101008083540402835291602001916111bc565b820191906000526020600020905b81548152906001019060200180831161119f57829003601f168201915b505050505081565b6009602052600090815260409020805481906111df906120dc565b80601f016020809104026020016040519081016040528092919081815260200182805461120b906120dc565b80156112585780601f1061122d57610100808354040283529160200191611258565b820191906000526020600020905b81548152906001019060200180831161123b57829003601f168201915b50505050509080600101805461126d906120dc565b80601f0160208091040260200160405190810160405280929190818152602001828054611299906120dc565b80156112e65780601f106112bb576101008083540402835291602001916112e6565b820191906000526020600020905b8154815290600101906020018083116112c957829003601f168201915b5050505050908060020180546112fb906120dc565b80601f0160208091040260200160405190810160405280929190818152602001828054611327906120dc565b80156113745780601f1061134957610100808354040283529160200191611374565b820191906000526020600020905b81548152906001019060200180831161135757829003601f168201915b505050600390930154919250506001600160a01b031684565b6003803360009081526001602052604090205460ff1660068111156113b4576113b4611f89565b146113d15760405162461bcd60e51b81526004016104bc90612111565b60408051808201825260048152633237bbb760e11b602080830191825233600090815260059091529290922090516114099290611b54565b5050565b6006602052600090815260409020805481906103f5906120dc565b6005803360009081526001602052604090205460ff16600681111561144f5761144f611f89565b1461146c5760405162461bcd60e51b81526004016104bc90612111565b60005b6001600160a01b03831660009081526007602052604090206002015462ffffff821610156114fa576001600160a01b038316600090815260076020526040902060020180546114e8919062ffffff84169081106114ce576114ce612158565b6000918252602090912001546001600160a01b0316610c78565b806114f2816121b6565b91505061146f565b506001600160a01b0382166000908152600160209081526040808320805460ff1916905560079091528120906115308282611bd8565b61153e600183016000611bd8565b61154c600283016000611c15565b5060038101805461ffff191690556000600490910181905561156d83611b07565b90506000818154811061158257611582612158565b600091825260209091200180546001600160a01b0319169055505050565b6000816040516020016115b39190611d30565b604051602081830303815290604052805190602001206002846040516115d9919061213c565b90815260200160405180910390205414801561161e5750600383604051611600919061213c565b90815260405190819003602001902054336001600160a01b03909116145b9392505050565b6005803360009081526001602052604090205460ff16600681111561164c5761164c611f89565b146116695760405162461bcd60e51b81526004016104bc90612111565b61169f6040518060a00160405280606081526020016060815260200160608152602001600061ffff168152602001600081525090565b8381526020808201849052600060608301819052608083018190526001600160a01b038716815260078252604090208251805184936116e2928492910190611b54565b5060208281015180516116fb9260018501920190611b54565b5060408201518051611717916002840191602090910190611c33565b50606082015160038201805461ffff191661ffff909216919091179055608090910151600490910155505050506001600160a01b031660008181526001602081905260408220805460ff191682179055815490810182559080527f290decd9548b62a8d60345a988386fc84ba6bc95484008f6362f93160ef3e5630180546001600160a01b0319169091179055565b6005803360009081526001602052604090205460ff1660068111156117cd576117cd611f89565b146117ea5760405162461bcd60e51b81526004016104bc90612111565b6001600160a01b038083166000908152600460209081526040808320548151608081018352600a909352922080549290931692909182919061182b906120dc565b80601f0160208091040260200160405190810160405280929190818152602001828054611857906120dc565b80156118a45780601f10611879576101008083540402835291602001916118a4565b820191906000526020600020905b81548152906001019060200180831161188757829003601f168201915b50505050508152602001600a6000866001600160a01b03166001600160a01b0316815260200190815260200160002060010180546118e1906120dc565b80601f016020809104026020016040519081016040528092919081815260200182805461190d906120dc565b801561195a5780601f1061192f5761010080835404028352916020019161195a565b820191906000526020600020905b81548152906001019060200180831161193d57829003601f168201915b5050505050815260200160076000846001600160a01b03166001600160a01b031681526020019081526020016000206001018054611997906120dc565b80601f01602080910402602001604051908101604052809291908181526020018280546119c3906120dc565b8015611a105780601f106119e557610100808354040283529160200191611a10565b820191906000526020600020905b8154815290600101906020018083116119f357829003601f168201915b50505091835250506001600160a01b03808416602092830152851660009081526009825260409020825180519192611a4d92849290910190611b54565b506020828101518051611a669260018501920190611b54565b5060408201518051611a82916002840191602090910190611b54565b5060609190910151600391820180546001600160a01b039283166001600160a01b0319918216179091559481166000818152600160208181526040808420805460ff1916909717909655959093168152600785528381206002018054938401815581528481209092018054871682179055815260049092529020805490921690915550565b6000805b826001600160a01b031660008281548110611b2857611b28612158565b6000918252602090912001546001600160a01b0316146106665780611b4c81612184565b915050611b0b565b828054611b60906120dc565b90600052602060002090601f016020900481019282611b825760008555611bc8565b82601f10611b9b57805160ff1916838001178555611bc8565b82800160010185558215611bc8579182015b82811115611bc8578251825591602001919060010190611bad565b50611bd4929150611c88565b5090565b508054611be4906120dc565b6000825580601f10611bf4575050565b601f016020900490600052602060002090810190611c129190611c88565b50565b5080546000825590600052602060002090810190611c129190611c88565b828054828255906000526020600020908101928215611bc8579160200282015b82811115611bc857825182546001600160a01b0319166001600160a01b03909116178255602090920191600190910190611c53565b5b80821115611bd45760008155600101611c89565b80356001600160a01b0381168114611cb457600080fd5b919050565b600060208284031215611ccb57600080fd5b61161e82611c9d565b60005b83811015611cef578181015183820152602001611cd7565b83811115611cfe576000848401525b50505050565b60008151808452611d1c816020860160208601611cd4565b601f01601f19169290920160200192915050565b60208152600061161e6020830184611d04565b634e487b7160e01b600052604160045260246000fd5b600082601f830112611d6a57600080fd5b813567ffffffffffffffff80821115611d8557611d85611d43565b604051601f8301601f19908116603f01168101908282118183101715611dad57611dad611d43565b81604052838152866020858801011115611dc657600080fd5b836020870160208301376000602085830101528094505050505092915050565b60008060008060808587031215611dfc57600080fd5b611e0585611c9d565b9350602085013567ffffffffffffffff80821115611e2257600080fd5b611e2e88838901611d59565b94506040870135915080821115611e4457600080fd5b611e5088838901611d59565b93506060870135915080821115611e6657600080fd5b50611e7387828801611d59565b91505092959194509250565b60008060408385031215611e9257600080fd5b611e9b83611c9d565b9150611ea960208401611c9d565b90509250929050565b608081526000611ec56080830187611d04565b8281036020840152611ed78187611d04565b61ffff95909516604084015250506060015292915050565b604081526000611f026040830185611d04565b8281036020840152611f148185611d04565b95945050505050565b600060208284031215611f2f57600080fd5b5035919050565b608081526000611f496080830187611d04565b8281036020840152611f5b8187611d04565b90508281036040840152611f6f8186611d04565b91505060018060a01b038316606083015295945050505050565b634e487b7160e01b600052602160045260246000fd5b6020810160078310611fc157634e487b7160e01b600052602160045260246000fd5b91905290565b60008060408385031215611fda57600080fd5b823567ffffffffffffffff80821115611ff257600080fd5b611ffe86838701611d59565b9350602085013591508082111561201457600080fd5b5061202185828601611d59565b9150509250929050565b60008060006060848603121561204057600080fd5b61204984611c9d565b9250602084013567ffffffffffffffff8082111561206657600080fd5b61207287838801611d59565b9350604086013591508082111561208857600080fd5b5061209586828701611d59565b9150509250925092565b6000602082840312156120b157600080fd5b813567ffffffffffffffff8111156120c857600080fd5b6120d484828501611d59565b949350505050565b600181811c908216806120f057607f821691505b60208210811415610c7257634e487b7160e01b600052602260045260246000fd5b6020808252601190820152702832b936b4b9b9b7b7103232b734b2b21760791b604082015260600190565b6000825161214e818460208701611cd4565b9190910192915050565b634e487b7160e01b600052603260045260246000fd5b634e487b7160e01b600052601160045260246000fd5b60006000198214156121985761219861216e565b5060010190565b6000828210156121b1576121b161216e565b500390565b600062ffffff808316818114156121cf576121cf61216e565b600101939250505056fea2646970667358221220e78b0e22e5d5133988c84f9021644097d7b382cac813dfbe3357c8a3fd7d573864736f6c63430008090033",
    "sourcePath": "/home/morimaroo17/work/blockchain_work/solidity_work/ex/contracts/Accounts.sol",
    "compiler": {
        "name": "solc",
        "version": "0.8.9+commit.e5eed63a"
    },
    "functionHashes": {
        "add_admin(address,string,string,string)": "0a322256",
        "add_customer(address,string,string,string)": "2a56b91b",
        "add_shop(address,string,string)": "e51679f4",
        "admins(address)": "429b62e5",
        "ask_for_down()": "78232aac",
        "ask_for_up(address)": "214f61d3",
        "asks_for_down(address)": "5433ee09",
        "asks_for_up(address)": "e324093b",
        "banks(address)": "80c3b8c2",
        "check_auth_data(string,string)": "96888ea0",
        "check_shop_seller(address,address)": "423a4e5c",
        "customers(address)": "336989ae",
        "down_role(address)": "3cdce7dd",
        "get_role(address)": "39c22db8",
        "get_shop_seller(address,address)": "1298a4b3",
        "get_users_count()": "22e1b1ef",
        "login_per_address(string)": "fb7f1cad",
        "providers(address)": "0787bc27",
        "remove_shop(address)": "94603f51",
        "role_per_address(address)": "831454db",
        "sellers(address)": "6d47ab72",
        "shops(address)": "2dca1fcc",
        "up_role(address)": "f14c316a",
        "users(uint256)": "365b98b2"
    },
    "gasEstimates": {
        "creation": {
            "codeDepositCost": "1743800",
            "executionCost": "infinite",
            "totalCost": "infinite"
        },
        "external": {
            "add_admin(address,string,string,string)": "infinite",
            "add_customer(address,string,string,string)": "infinite",
            "add_shop(address,string,string)": "infinite",
            "admins(address)": "infinite",
            "ask_for_down()": "infinite",
            "ask_for_up(address)": "26957",
            "asks_for_down(address)": "infinite",
            "asks_for_up(address)": "2624",
            "banks(address)": "infinite",
            "check_auth_data(string,string)": "infinite",
            "check_shop_seller(address,address)": "infinite",
            "customers(address)": "infinite",
            "down_role(address)": "infinite",
            "get_role(address)": "infinite",
            "get_shop_seller(address,address)": "infinite",
            "get_users_count()": "2392",
            "login_per_address(string)": "infinite",
            "providers(address)": "infinite",
            "remove_shop(address)": "infinite",
            "role_per_address(address)": "2705",
            "sellers(address)": "infinite",
            "shops(address)": "infinite",
            "up_role(address)": "infinite",
            "users(uint256)": "4681"
        },
        "internal": {
            "find(address)": "infinite"
        }
    }
}