{
    "contractName": "Example",
    "abi": [
        {
            "inputs": [],
            "stateMutability": "nonpayable",
            "type": "constructor"
        },
        {
            "inputs": [],
            "name": "getOwner",
            "outputs": [
                {
                    "internalType": "address",
                    "name": "",
                    "type": "address"
                }
            ],
            "stateMutability": "view",
            "type": "function"
        },
        {
            "inputs": [
                {
                    "internalType": "address",
                    "name": "_user_address",
                    "type": "address"
                }
            ],
            "name": "getUser",
            "outputs": [
                {
                    "internalType": "string",
                    "name": "",
                    "type": "string"
                }
            ],
            "stateMutability": "view",
            "type": "function"
        },
        {
            "inputs": [
                {
                    "internalType": "string",
                    "name": "_login",
                    "type": "string"
                },
                {
                    "internalType": "string",
                    "name": "_password",
                    "type": "string"
                }
            ],
            "name": "login",
            "outputs": [
                {
                    "internalType": "bool",
                    "name": "",
                    "type": "bool"
                }
            ],
            "stateMutability": "view",
            "type": "function"
        },
        {
            "inputs": [
                {
                    "internalType": "string",
                    "name": "_login",
                    "type": "string"
                },
                {
                    "internalType": "string",
                    "name": "_name",
                    "type": "string"
                },
                {
                    "internalType": "uint8",
                    "name": "_age",
                    "type": "uint8"
                },
                {
                    "internalType": "string",
                    "name": "_password",
                    "type": "string"
                }
            ],
            "name": "register",
            "outputs": [],
            "stateMutability": "nonpayable",
            "type": "function"
        }
    ],
    "bytecode": "608060405234801561001057600080fd5b50600280546001600160a01b031916331790556106ac806100326000396000f3fe608060405234801561001057600080fd5b506004361061004c5760003560e01c806358467dbc1461005157806368ce4afd146100795780636f77926b1461008e578063893d20e8146100ae575b600080fd5b61006461005f366004610485565b6100c9565b60405190151581526020015b60405180910390f35b61008c6100873660046104e9565b61011a565b005b6100a161009c36600461058c565b6101db565b60405161007091906105ec565b6002546040516001600160a01b039091168152602001610070565b6000816040516020016100dc91906105ec565b60405160208183030381529060405280519060200120600184604051610102919061061f565b90815260200160405180910390205414905092915050565b60408051606081018252848152602080820187905260ff8516828401523360009081528082529290922081518051929391926101599284920190610349565b5060208281015180516101729260018501920190610349565b50604091820151600291909101805460ff191660ff9092169190911790555161019f9082906020016105ec565b604051602081830303815290604052805190602001206001856040516101c5919061061f565b9081526040519081900360200190205550505050565b60606000806000846001600160a01b03166001600160a01b0316815260200190815260200160002060405180606001604052908160008201805461021e9061063b565b80601f016020809104026020016040519081016040528092919081815260200182805461024a9061063b565b80156102975780601f1061026c57610100808354040283529160200191610297565b820191906000526020600020905b81548152906001019060200180831161027a57829003601f168201915b505050505081526020016001820180546102b09061063b565b80601f01602080910402602001604051908101604052809291908181526020018280546102dc9061063b565b80156103295780601f106102fe57610100808354040283529160200191610329565b820191906000526020600020905b81548152906001019060200180831161030c57829003601f168201915b50505091835250506002919091015460ff16602090910152519392505050565b8280546103559061063b565b90600052602060002090601f01602090048101928261037757600085556103bd565b82601f1061039057805160ff19168380011785556103bd565b828001600101855582156103bd579182015b828111156103bd5782518255916020019190600101906103a2565b506103c99291506103cd565b5090565b5b808211156103c957600081556001016103ce565b634e487b7160e01b600052604160045260246000fd5b600082601f83011261040957600080fd5b813567ffffffffffffffff80821115610424576104246103e2565b604051601f8301601f19908116603f0116810190828211818310171561044c5761044c6103e2565b8160405283815286602085880101111561046557600080fd5b836020870160208301376000602085830101528094505050505092915050565b6000806040838503121561049857600080fd5b823567ffffffffffffffff808211156104b057600080fd5b6104bc868387016103f8565b935060208501359150808211156104d257600080fd5b506104df858286016103f8565b9150509250929050565b600080600080608085870312156104ff57600080fd5b843567ffffffffffffffff8082111561051757600080fd5b610523888389016103f8565b9550602087013591508082111561053957600080fd5b610545888389016103f8565b94506040870135915060ff8216821461055d57600080fd5b9092506060860135908082111561057357600080fd5b50610580878288016103f8565b91505092959194509250565b60006020828403121561059e57600080fd5b81356001600160a01b03811681146105b557600080fd5b9392505050565b60005b838110156105d75781810151838201526020016105bf565b838111156105e6576000848401525b50505050565b602081526000825180602084015261060b8160408501602087016105bc565b601f01601f19169190910160400192915050565b600082516106318184602087016105bc565b9190910192915050565b600181811c9082168061064f57607f821691505b6020821081141561067057634e487b7160e01b600052602260045260246000fd5b5091905056fea2646970667358221220e0313d8e5a7bb273235f069a37598744fae4dbdf0c151ae3642a7960805561b464736f6c63430008090033",
    "sourcePath": "/home/morimaroo17/work/blockchain_work/solidity_work/ex/contracts/Example.sol",
    "compiler": {
        "name": "solc",
        "version": "0.8.9+commit.e5eed63a"
    },
    "functionHashes": {
        "getOwner()": "893d20e8",
        "getUser(address)": "6f77926b",
        "login(string,string)": "58467dbc",
        "register(string,string,uint8,string)": "68ce4afd"
    },
    "gasEstimates": {
        "creation": {
            "codeDepositCost": "341600",
            "executionCost": "24615",
            "totalCost": "366215"
        },
        "external": {
            "getOwner()": "2345",
            "getUser(address)": "infinite",
            "login(string,string)": "infinite",
            "register(string,string,uint8,string)": "infinite"
        }
    }
}